{
  "contractName": "BridgeBase",
  "abi": [
    {
      "inputs": [
        {
          "internalType": "address",
          "name": "_token",
          "type": "address"
        }
      ],
      "stateMutability": "nonpayable",
      "type": "constructor"
    },
    {
      "anonymous": false,
      "inputs": [
        {
          "indexed": false,
          "internalType": "address",
          "name": "from",
          "type": "address"
        },
        {
          "indexed": false,
          "internalType": "address",
          "name": "to",
          "type": "address"
        },
        {
          "indexed": false,
          "internalType": "uint256",
          "name": "amount",
          "type": "uint256"
        },
        {
          "indexed": false,
          "internalType": "uint256",
          "name": "date",
          "type": "uint256"
        },
        {
          "indexed": false,
          "internalType": "uint256",
          "name": "nonce",
          "type": "uint256"
        },
        {
          "indexed": false,
          "internalType": "bytes",
          "name": "signature",
          "type": "bytes"
        },
        {
          "indexed": true,
          "internalType": "enum BridgeBase.Step",
          "name": "step",
          "type": "uint8"
        }
      ],
      "name": "Transfer",
      "type": "event"
    },
    {
      "inputs": [],
      "name": "admin",
      "outputs": [
        {
          "internalType": "address",
          "name": "",
          "type": "address"
        }
      ],
      "stateMutability": "view",
      "type": "function"
    },
    {
      "inputs": [
        {
          "internalType": "address",
          "name": "",
          "type": "address"
        },
        {
          "internalType": "uint256",
          "name": "",
          "type": "uint256"
        }
      ],
      "name": "processedNonces",
      "outputs": [
        {
          "internalType": "bool",
          "name": "",
          "type": "bool"
        }
      ],
      "stateMutability": "view",
      "type": "function"
    },
    {
      "inputs": [],
      "name": "token",
      "outputs": [
        {
          "internalType": "contract IToken",
          "name": "",
          "type": "address"
        }
      ],
      "stateMutability": "view",
      "type": "function"
    },
    {
      "inputs": [
        {
          "internalType": "address",
          "name": "to",
          "type": "address"
        },
        {
          "internalType": "uint256",
          "name": "amount",
          "type": "uint256"
        },
        {
          "internalType": "uint256",
          "name": "nonce",
          "type": "uint256"
        },
        {
          "internalType": "bytes",
          "name": "signature",
          "type": "bytes"
        }
      ],
      "name": "burn",
      "outputs": [],
      "stateMutability": "nonpayable",
      "type": "function"
    },
    {
      "inputs": [
        {
          "internalType": "address",
          "name": "from",
          "type": "address"
        },
        {
          "internalType": "address",
          "name": "to",
          "type": "address"
        },
        {
          "internalType": "uint256",
          "name": "amount",
          "type": "uint256"
        },
        {
          "internalType": "uint256",
          "name": "nonce",
          "type": "uint256"
        },
        {
          "internalType": "bytes",
          "name": "signature",
          "type": "bytes"
        }
      ],
      "name": "mint",
      "outputs": [],
      "stateMutability": "nonpayable",
      "type": "function"
    }
  ],
  "bytecode": "0x608060405234801561001057600080fd5b506040516200117b3803806200117b833981810160405281019061003491906100d0565b336000806101000a81548173ffffffffffffffffffffffffffffffffffffffff021916908373ffffffffffffffffffffffffffffffffffffffff16021790555080600160006101000a81548173ffffffffffffffffffffffffffffffffffffffff021916908373ffffffffffffffffffffffffffffffffffffffff16021790555050610142565b6000815190506100ca8161012b565b92915050565b6000602082840312156100e257600080fd5b60006100f0848285016100bb565b91505092915050565b60006101048261010b565b9050919050565b600073ffffffffffffffffffffffffffffffffffffffff82169050919050565b610134816100f9565b811461013f57600080fd5b50565b61102980620001526000396000f3fe608060405234801561001057600080fd5b50600436106100575760003560e01c8063525557021461005c5780637cc70240146100785780638a94b05f146100a8578063f851a440146100c4578063fc0c546a146100e2575b600080fd5b61007660048036038101906100719190610913565b610100565b005b610092600480360381019061008d91906109a5565b610507565b60405161009f9190610dd5565b60405180910390f35b6100c260048036038101906100bd91906109e1565b610536565b005b6100cc610758565b6040516100d99190610cf0565b60405180910390f35b6100ea61077c565b6040516100f79190610e35565b60405180910390f35b60006101378787878760405160200161011c9493929190610c7c565b604051602081830303815290604052805190602001206107a2565b90508673ffffffffffffffffffffffffffffffffffffffff1661019e8285858080601f016020809104026020016040519081016040528093929190818152602001838380828437600081840152601f19601f820116905080830192505050505050506107d2565b73ffffffffffffffffffffffffffffffffffffffff16146101f4576040517f08c379a00000000000000000000000000000000000000000000000000000000081526004016101eb90610e90565b60405180910390fd5b60001515600260008973ffffffffffffffffffffffffffffffffffffffff1673ffffffffffffffffffffffffffffffffffffffff168152602001908152602001600020600086815260200190815260200160002060009054906101000a900460ff16151514610298576040517f08c379a000000000000000000000000000000000000000000000000000000000815260040161028f90610e70565b60405180910390fd5b6000600160009054906101000a900473ffffffffffffffffffffffffffffffffffffffff1673ffffffffffffffffffffffffffffffffffffffff166370a08231306040518263ffffffff1660e01b81526004016102f59190610cf0565b60206040518083038186803b15801561030d57600080fd5b505afa158015610321573d6000803e3d6000fd5b505050506040513d601f19601f820116820180604052508101906103459190610a61565b9050858111610389576040517f08c379a000000000000000000000000000000000000000000000000000000000815260040161038090610e50565b60405180910390fd5b6001600260008a73ffffffffffffffffffffffffffffffffffffffff1673ffffffffffffffffffffffffffffffffffffffff168152602001908152602001600020600087815260200190815260200160002060006101000a81548160ff021916908315150217905550600160009054906101000a900473ffffffffffffffffffffffffffffffffffffffff1673ffffffffffffffffffffffffffffffffffffffff1663a9059cbb88886040518363ffffffff1660e01b815260040161044f929190610dac565b600060405180830381600087803b15801561046957600080fd5b505af115801561047d573d6000803e3d6000fd5b505050506001808111156104ba577f4e487b7100000000000000000000000000000000000000000000000000000000600052602160045260246000fd5b7fce5a9b86edd3b998c3948a7934c7ecf7dba73c4c5bcf56cf576bca4aa2beeb30898989428a8a8a6040516104f59796959493929190610d42565b60405180910390a25050505050505050565b60026020528160005260406000206020528060005260406000206000915091509054906101000a900460ff1681565b60001515600260003373ffffffffffffffffffffffffffffffffffffffff1673ffffffffffffffffffffffffffffffffffffffff168152602001908152602001600020600085815260200190815260200160002060009054906101000a900460ff161515146105da576040517f08c379a00000000000000000000000000000000000000000000000000000000081526004016105d190610e70565b60405180910390fd5b6001600260003373ffffffffffffffffffffffffffffffffffffffff1673ffffffffffffffffffffffffffffffffffffffff168152602001908152602001600020600085815260200190815260200160002060006101000a81548160ff021916908315150217905550600160009054906101000a900473ffffffffffffffffffffffffffffffffffffffff1673ffffffffffffffffffffffffffffffffffffffff166323b872dd8630876040518463ffffffff1660e01b81526004016106a293929190610d0b565b600060405180830381600087803b1580156106bc57600080fd5b505af11580156106d0573d6000803e3d6000fd5b505050506000600181111561070e577f4e487b7100000000000000000000000000000000000000000000000000000000600052602160045260246000fd5b7fce5a9b86edd3b998c3948a7934c7ecf7dba73c4c5bcf56cf576bca4aa2beeb30338787428888886040516107499796959493929190610d42565b60405180910390a25050505050565b60008054906101000a900473ffffffffffffffffffffffffffffffffffffffff1681565b600160009054906101000a900473ffffffffffffffffffffffffffffffffffffffff1681565b6000816040516020016107b59190610cca565b604051602081830303815290604052805190602001209050919050565b6000806000806107e185610847565b809350819450829550505050600186848484604051600081526020016040526040516108109493929190610df0565b6020604051602081039080840390855afa158015610832573d6000803e3d6000fd5b50505060206040510351935050505092915050565b6000806000604184511461085a57600080fd5b60008060006020870151925060408701519150606087015160001a90508083839550955095505050509193909250565b60008135905061089981610fc5565b92915050565b60008083601f8401126108b157600080fd5b8235905067ffffffffffffffff8111156108ca57600080fd5b6020830191508360018202830111156108e257600080fd5b9250929050565b6000813590506108f881610fdc565b92915050565b60008151905061090d81610fdc565b92915050565b60008060008060008060a0878903121561092c57600080fd5b600061093a89828a0161088a565b965050602061094b89828a0161088a565b955050604061095c89828a016108e9565b945050606061096d89828a016108e9565b935050608087013567ffffffffffffffff81111561098a57600080fd5b61099689828a0161089f565b92509250509295509295509295565b600080604083850312156109b857600080fd5b60006109c68582860161088a565b92505060206109d7858286016108e9565b9150509250929050565b6000806000806000608086880312156109f957600080fd5b6000610a078882890161088a565b9550506020610a18888289016108e9565b9450506040610a29888289016108e9565b935050606086013567ffffffffffffffff811115610a4657600080fd5b610a528882890161089f565b92509250509295509295909350565b600060208284031215610a7357600080fd5b6000610a81848285016108fe565b91505092915050565b610a9381610edd565b82525050565b610aaa610aa582610edd565b610f6f565b82525050565b610ab981610eef565b82525050565b610ac881610efb565b82525050565b610adf610ada82610efb565b610f81565b82525050565b6000610af18385610eb0565b9350610afe838584610f60565b610b0783610fa7565b840190509392505050565b610b1b81610f3c565b82525050565b6000610b2e602283610ec1565b91507f696e7375666669656e742066756e647320696e2061646d696e206163636f756e60008301527f742e0000000000000000000000000000000000000000000000000000000000006020830152604082019050919050565b6000610b94601c83610ed2565b91507f19457468657265756d205369676e6564204d6573736167653a0a3332000000006000830152601c82019050919050565b6000610bd4601a83610ec1565b91507f7472616e7366657220616c72656164792070726f6365737365640000000000006000830152602082019050919050565b6000610c14600f83610ec1565b91507f77726f6e67207369676e617475726500000000000000000000000000000000006000830152602082019050919050565b610c5081610f25565b82525050565b610c67610c6282610f25565b610f9d565b82525050565b610c7681610f2f565b82525050565b6000610c888287610a99565b601482019150610c988286610a99565b601482019150610ca88285610c56565b602082019150610cb88284610c56565b60208201915081905095945050505050565b6000610cd582610b87565b9150610ce18284610ace565b60208201915081905092915050565b6000602082019050610d056000830184610a8a565b92915050565b6000606082019050610d206000830186610a8a565b610d2d6020830185610a8a565b610d3a6040830184610c47565b949350505050565b600060c082019050610d57600083018a610a8a565b610d646020830189610a8a565b610d716040830188610c47565b610d7e6060830187610c47565b610d8b6080830186610c47565b81810360a0830152610d9e818486610ae5565b905098975050505050505050565b6000604082019050610dc16000830185610a8a565b610dce6020830184610c47565b9392505050565b6000602082019050610dea6000830184610ab0565b92915050565b6000608082019050610e056000830187610abf565b610e126020830186610c6d565b610e1f6040830185610abf565b610e2c6060830184610abf565b95945050505050565b6000602082019050610e4a6000830184610b12565b92915050565b60006020820190508181036000830152610e6981610b21565b9050919050565b60006020820190508181036000830152610e8981610bc7565b9050919050565b60006020820190508181036000830152610ea981610c07565b9050919050565b600082825260208201905092915050565b600082825260208201905092915050565b600081905092915050565b6000610ee882610f05565b9050919050565b60008115159050919050565b6000819050919050565b600073ffffffffffffffffffffffffffffffffffffffff82169050919050565b6000819050919050565b600060ff82169050919050565b6000610f4782610f4e565b9050919050565b6000610f5982610f05565b9050919050565b82818337600083830152505050565b6000610f7a82610f8b565b9050919050565b6000819050919050565b6000610f9682610fb8565b9050919050565b6000819050919050565b6000601f19601f8301169050919050565b60008160601b9050919050565b610fce81610edd565b8114610fd957600080fd5b50565b610fe581610f25565b8114610ff057600080fd5b5056fea26469706673582212202412a8353fa70c7135acd089a8ed6826100567adaccc73884abc23467dc5e76664736f6c63430008000033",
  "immutableReferences": {},
  "source": "pragma solidity ^0.8.0;\n\nimport '@openzeppelin/contracts/token/ERC20/IERC20.sol';\nimport './IToken.sol';\n\ncontract BridgeBase {\n  address public admin;\n  IToken public token;\n  mapping(address => mapping(uint => bool)) public processedNonces;\n\n  enum Step { Burn, Mint }\n  event Transfer(\n    address from,\n    address to,\n    uint amount,\n    uint date,\n    uint nonce,\n    bytes signature,\n    Step indexed step\n  );\n\n  constructor(address _token) {\n    admin = msg.sender;\n    token = IToken(_token);\n  }\n\n  function burn(address to, uint amount, uint nonce, bytes calldata signature) external {\n    require(processedNonces[msg.sender][nonce] == false, 'transfer already processed');\n    processedNonces[msg.sender][nonce] = true;\n   // token.burn(msg.sender, amount);\n    //instead of burning transfer to admin account\n    token.transferFrom(to, address(this), amount);\n    \n    emit Transfer(\n      msg.sender,\n      to,\n      amount,\n      block.timestamp,\n      nonce,\n      signature,\n      Step.Burn\n    );\n  }\n\n  function mint(\n    address from, \n    address to, \n    uint amount, \n    uint nonce,\n    bytes calldata signature\n  ) external {\n    bytes32 message = prefixed(keccak256(abi.encodePacked(\n      from, \n      to, \n      amount,\n      nonce\n    )));\n  //  require(admin == msg.sender, \"only admin can call this\");\n    require(recoverSigner(message, signature) == from , 'wrong signature');\n    require(processedNonces[from][nonce] == false, 'transfer already processed');\n\n    uint adminBal = token.balanceOf( address(this) );\n\n    require(  adminBal > amount, \"insuffient funds in admin account.\");\n    \n    processedNonces[from][nonce] = true;\n\n     //instead of minting, transfer from admin account\n    //token.mint(to, amount);\n     \n    token.transfer(to, amount);\n\n    emit Transfer(\n      from,\n      to,\n      amount,\n      block.timestamp,\n      nonce,\n      signature,\n      Step.Mint\n    );\n  }\n\n  function prefixed(bytes32 hash) internal pure returns (bytes32) {\n    return keccak256(abi.encodePacked(\n      '\\x19Ethereum Signed Message:\\n32', \n      hash\n    ));\n  }\n\n  function recoverSigner(bytes32 message, bytes memory sig)\n    internal\n    pure\n    returns (address)\n  {\n    uint8 v;\n    bytes32 r;\n    bytes32 s;\n  \n    (v, r, s) = splitSignature(sig);\n  \n    return ecrecover(message, v, r, s);\n  }\n\n  function splitSignature(bytes memory sig)\n    internal\n    pure\n    returns (uint8, bytes32, bytes32)\n  {\n    require(sig.length == 65);\n  \n    bytes32 r;\n    bytes32 s;\n    uint8 v;\n  \n    assembly {\n        // first 32 bytes, after the length prefix\n        r := mload(add(sig, 32))\n        // second 32 bytes\n        s := mload(add(sig, 64))\n        // final byte (first byte of the next 32 bytes)\n        v := byte(0, mload(add(sig, 96)))\n    }\n  \n    return (v, r, s);\n  }\n}\n",
  "sourcePath": "/home/alpha/W2/EthBscBridge/contracts/BridgeBase.sol",
  "compiler": {
    "name": "solc",
    "version": "0.8.0+commit.c7dfd78e.Emscripten.clang"
  },
  "schemaVersion": "3.3.4",
  "updatedAt": "2021-07-04T16:02:41.704Z",
  "devdoc": {
    "kind": "dev",
    "methods": {},
    "version": 1
  },
  "userdoc": {
    "kind": "user",
    "methods": {},
    "version": 1
  }
}